:040000000C942B022F
:100004000C9400000C9400000C9400000C9400006C
:100014000C9400000C9400000C9400000C9400005C
:100024000C9400000C9400000C9400000C9400004C
:100034000C9400000C9400000C9400000C9400003C
:100044000C9400000C9400000C9400000C9400002C
:10005400000000000000000000000000000000009C
:10006400000000000000000000000000000000008C
:10007400000000000000000000000000F0F8000094
:1000840000406030180C0000808080800000020472
:100094000000000000C0E0E0C0000000000000001C
:1000A400000000000000000000000000000000004C
:1000B400000000000000000000000000000000003C
:1000C400000000000000000000000000000000002C
:1000D400000000000000000000000000000000001C
:1000E40000000000000000000000000000003020BC
:1000F400302030003C784040467E7A03070F0C0CD9
:100104000C0C0C0F0C0C0C0F0F0D0D070300000052
:1001140040406030180C070301000000000000009C
:1001240000000000000000000000000000000000CB
:1001340000000000000000000000000000000000BB
:1001440000000000000000000000000000000000AB
:10015400000000000000000000000000000000009B
:100164000000000000000000804000000038201063
:100174000C1C3020203E20201E00003E0000000009
:10018400FFFEF8E080000000002030180C0600009C
:10019400000000000000FEFFEF8F0F0F0F9F9FFF76
:1001A400FEFCF8F0C00000000000000000000000A9
:1001B400000000000000000000000000000000003B
:1001C400000000000000000000000000000000002B
:1001D400000000000000000000000000000000001B
:1001E4000000000000000081C2E000000000C00028
:1001F400080402000000800000FE000060909040AF
:1002040000010F7FFFFEF080000E088E8EC8EEE026
:10021400F0F0F8787C3C3E1F1F0F1FFFFF07070319
:100224000303010181C06030707000000000000011
:1002340000000000000000000000000000000000BA
:1002440000000000000000000000000000000000AA
:10025400000000000000000000000000000000009A
:100264000000000000000080C14171713109FF816C
:100274000101010901090181018101810101C0E03C
:10028400E0000000030FFFFFFC7E7F7F7F7F7F7D08
:1002940079F8F8F8F8F8F8F8F8F8F8F8F8F8F8F859
:1002A400F8F8F9797978381808000000000000009F
:1002B400000000000000000000000000000000003A
:1002C400000000000000000000000000000000002A
:1002D400000000000000000000000000000000001A
:1002E40000000000000203010000000000FC000107
:1002F4000383C3634363436303030301080C0C07D1
:1003040083C0F0F0381E0F077FFEF8E0C0E0F07CF9
:100314001E0F0F070703030171090000000000000E
:1003240000000000000000000000000000000000C9
:1003340000000000000000000000000000000000B9
:1003440000000000000000000000000000000000A9
:100354000000000000000000000000000000000099
:10036400000000000000000000000000001F7CF0FE
:10037400E1E1E0E0E0E0E0E0E0F070783C1E1E0F38
:1003840007030100000000000001070F1F3F7FFC6E
:10039400F8F0E0E0E0C0000000000000C0A49CC051
:1003A40040200000000000000000000000000000E9
:1003B4000000000000000000000000000000000039
:1003C4000000000000000000000000000000000029
:1003D4000000000000000000000000000000000019
:1003E4000000000000000000000000000000000009
:1003F4000101030303030101010000000040406008
:1004040030180C060E0E0000000080402020C03082
:1004140010010103030100000000000000000000BF
:1004240000000000000000000000000000000000C8
:1004340000000000000000000000000000000000B8
:1004440000000000000000000000000000000000A8
:100454000000F894EE27ECBBF1E0FBBFEBBFE5BF77
:10046400F8E1F1BDE1BD8DE0A2E0BB27ED938A95F3
:10047400E9F780E094E0A0E6ED930197E9F7E4E57D
:10048400F4E085919591009761F0A591B59105905F
:100494001590BF01F00105900D920197E1F7FB0162
:1004A400F0CFEFE5EDBFE4E0EEBFC0E6D1E00C94A1
:1004B400A20288EE93E00197F1F7A8984DD0089531
:1004C40088EE93E00197F1F7A89A46D008951A931D
:1004D40010E0103458F4F401EC5AFF4F04900BBAB6
:1004E400F40131964F01ECDF1F5FF3CF1AC0E0E453
:1004F400EBBBDFDF53945BBA36D00895E0E4EBBB8B
:10050400D8DF43944BBA2FD008951A9310E01715EF
:1005140040F4AB9AAC98F2DFAB98AC9AE8DF1F5F7B
:10052400F6CF19910895AD9888E08A95F1F7AD9AC0
:100534000895E7EB5E2E4E2EE8E07E2EE6DF08956A
:10054400E0E0E5BBEFEFE4BBE0E0EBBBEFEFEABBE1
:10055400EADFEFDFFFCFFFCFA998AA9A83E08A955D
:10056400F1F7AA980895A5DFEFE3EBBBA2DFAFCFC5
:00000001FF
